:10800000901B012085FA00001DF4000069FA0000B1
:1080100069FA000069FA000069FA000069FA0000D4
:10802000000000000000000000000000A1FC0000B3
:1080300069FA00000000000045FC000069FA000039
:1080400069FE000069FE000069FE000069FE000094
:1080500069FE000069FE000069FE000069FE000084
:1080600069FE000069FE000069FE000069FE000074
:1080700069FE000069FE000069FE000069FE000064
:1080800069FE000069FE000069FE000069FE000054
:1080900069FE000069FE000069FE000069FE000044
:1080A00069FE000069FE000069FE000069FE000034
:1080B00069FE000069FE000069FE000069FE000024
:1080C00069FE000069FE000069FE000069FE000014
:1080D00069FE000069FE000069FE000069FE000004
:1080E00069FE000069FE000069FE000069FE0000F4
:1080F00069FE000069FE000069FE000069FE0000E4
:1081000069FE000069FE000069FE000069FE0000D3
:1081100069FE000069FE000069FE000069FE0000C3
:1081200069FE000069FE000069FE000069FE0000B3
:1081300069FE000069FE000069FE000069FE0000A3
:1081400069FE000069FE000069FE000069FE000093
:0481500069FE0000C4
:04815400FFFFFFFF2B
:108158004FF0FF0C1CEAD0521EBF1CEAD15392EA22
:108168000C0F93EA0C0F6FD01A4480EA010C4002FE
:1081780018BF5FEA41211ED04FF0006343EA501058
:1081880043EA5111A0FB01310CF00040B1F5000F9A
:108198003EBF490041EAD3715B0040EA010062F149
:1081A8007F02FD2A1DD8B3F1004F40EBC25008BF33
:1081B80020F00100704790F0000F0CF0004C08BF51
:1081C80049024CEA502040EA51207F3AC2BFD2F11E
:1081D800FF0340EAC250704740F400004FF000032C
:1081E800013A5DDC12F1190FDCBF00F00040704766
:1081F800C2F10002410021FA02F1C2F1200200FAA4
:1082080002FC5FEA310040F1000053EA4C0308BF6A
:1082180020EADC70704792F0000F00F0004C02BFBB
:10822800400010F4000F013AF9D040EA0C0093F036
:10823800000F01F0004C02BF490011F4000F013B90
:10824800F9D041EA0C018FE70CEAD15392EA0C0FFE
:1082580018BF93EA0C0F0AD030F0004C18BF31F069
:10826800004CD8D180EA010000F00040704790F03F
:10827800000F17BF90F0004F084691F0000F91F0E3
:10828800004F14D092EA0C0F01D142020FD193EAA9
:108298000C0F03D14B0218BF084608D180EA010031
:1082A80000F0004040F0FE4040F40000704740F00D
:1082B800FE4040F44000704780F0004002E000BFFC
:1082C80081F0004142001FBF5FEA410392EA030FB9
:1082D8007FEA226C7FEA236C6AD04FEA1262D2EB03
:1082E8001363C1BFD218414048404140B8BF5B4208
:1082F800192B88BF704710F0004F40F4000020F0A1
:108308007F4018BF404211F0004F41F4000121F0B6
:108318007F4118BF494292EA030F3FD0A2F1010200
:1083280041FA03FC10EB0C00C3F1200301FA03F13E
:1083380000F0004302D5494260EB4000B0F5000F61
:1083480013D3B0F1807F06D340084FEA310102F120
:108358000102FE2A51D2B1F1004F40EBC25008BFD2
:1083680020F0010040EA03007047490040EB00009C
:10837800013A28BFB0F5000FEDD2B0FA80FCACF19D
:10838800080CB2EB0C0200FA0CF0AABF00EBC250CA
:1083980052421843BCBFD0401843704792F0000FB8
:1083A80081F4000106BF80F400000132013BB5E70B
:1083B8004FEA41037FEA226C18BF7FEA236C21D081
:1083C80092EA030F04D092F0000F08BF08467047E6
:1083D80090EA010F1CBF0020704712F07F4F04D1B4
:1083E800400028BF40F00040704712F100723CBFC7
:1083F80000F50000704700F0004343F0FE4040F4F1
:10840800000070477FEA226216BF08467FEA2363AE
:108418000146420206BF5FEA412390EA010F40F499
:10842800800070474FF0000304E000BF10F00043E5
:1084380048BF40425FEA000C08BF704743F09643CC
:1084480001464FF000001CE050EA010208BF7047E7
:108458004FF000030AE000BF50EA010208BF70476E
:1084680011F0004302D5404261EB41015FEA010C83
:1084780002BF84460146002043F0B64308BFA3F17B
:108488008053A3F50003BCFA8CF2083AA3EBC2535D
:1084980010DB01FA02FC634400FA02FCC2F120027C
:1084A800BCF1004F20FA02F243EB020008BF20F0B3
:1084B8000100704702F1200201FA02FCC2F1200219
:1084C80050EA4C0021FA02F243EB020008BF20EA0E
:1084D800DC70704742000ED2B2F1FE4F0BD34FF062
:1084E8009E03B3EB126209D44FEA002343F0004322
:1084F80023FA02F070474FF00000704712F1610F45
:1085080001D1420202D14FF0FF3070474FF0000016
:10851800704700BF7BB972B90029BEBF00204FF079
:10852800004106E008BF00281CBF6FF000414FF073
:10853800FF3000F057B8ADF1080C6DE904CE002902
:1085480009DB002B1ADB00F04FF8DDF804E0DDE969
:10855800022304B07047404261EB4101002B1BDB52
:1085680000F042F8DDF804E0DDE9022304B04042FF
:1085780061EB4101524263EB43037047524263EBA4
:10858800430300F031F8DDF804E0DDE9022304B02C
:10859800404261EB41017047524263EB430300F0F4
:1085A80023F8DDF804E0DDE9022304B0524263EB6E
:1085B8004303704753B94AB9002908BF00281CBFB4
:1085C8004FF0FF314FF0FF3000F00CB8ADF1080C60
:1085D8006DE904CE00F008F8DDF804E0DDE90223D7
:1085E80004B07047704700BF2DE9F04786468C46B7
:1085F8000846089E154674461946002B40F0C1806F
:108608008542B2FA82F245D94AB1C2F1200300FA92
:1086180002FC954094402EFA03F343EA0C0C4FEA0F
:10862800154EA8B2230CBCFBFEF80EFB18CC08FBB9
:1086380000F943EA0C43994528D9EB1808F1FF37AC
:1086480004D2994502D9A8F102072B44A3EB0903E8
:10865800A4B2B3FBFEFC0EFB1C330CFB00F044EA97
:108668000344A04214D92C190CF1FF3304D2A042C0
:1086780002D9ACF102032C44241A43EA07401EB184
:10868800D440002334607360BDE8F0874746DDE7D7
:108698006346F1E792BB431B01214FEA154EAFB287
:1086A800200CB3FBFEFC0EFB1C330CFB07F840EA66
:1086B8000343984561D9EB180CF1FF3004D2984573
:1086C80002D9ACF102002B44A3EB0803A4B2B3FB1C
:1086D800FEFC0EFB1C330CFB07F744EA0344A742DD
:1086E8004DD92C190CF1FF3304D2A74202D9ACF1B1
:1086F80002032C44E41B43EA0040C0E7C2F1200314
:108708009540944020FA03F12EFA03F34FEA154EF0
:108718009040AFB20343B1FBFEFC0EFB1C10190CDA
:108728000CFB07F841EA0041884522D969180CF189
:10873800FF3004D2884502D9ACF102002944A1EBEC
:1087480008019BB2B1FBFEFC0EFB1C110CFB07F7EA
:1087580043EA01439F420ED9EB180CF1FF3104D2D2
:108768009F4202D9ACF102012B44DB1B41EA0041D4
:1087780093E76046E3E76146F7E76046A4E76346A8
:10878800B8E7834206D916B9002108467CE7C6E94E
:1087980000E0F9E7B3FA83F78FB9834201D3724552
:1087A80008D8BEEB020460EB030301209C461EB907
:1087B800002169E73846FAE7C6E9004CF8E7C7F14F
:1087C800200CBB400EFA07F522FA0CF42EFA0CF135
:1087D800BA401C4320FA0CF3B8404FEA144901434D
:1087E8001FFA84FEB3FBF9F809FB18300B0C08FBE1
:1087F8000EFA43EA00439A4540D9E31808F1FF30DE
:1088080004D29A4502D9A8F102002344A3EB0A0333
:1088180089B2B3FBF9F809FB183308FB0EFE41EAED
:1088280003418E452CD9611808F1FF3304D28E45D7
:1088380002D9A8F10203214443EA0040A1EB0E014A
:10884800A0FB02984145CE46434602D306D14D458A
:1088580004D20138B9EB020E68EB0403002EA7D04E
:10886800B5EB0E0261EB030101FA0CFC22FA07F3E7
:10887800F9404CEA0303C6E9003199E74046C5E7E9
:108888004346D9E710F8012B11F8013B012A28BF0C
:108898009A42F7D0D01A7047034611F8012B03F813
:1088A800012B002AF9D17047034613F8012B002A3F
:1088B800FBD1181A013870472DE9F04706460F46D4
:1088C80090468AB024F03BFD4FF47A73A0FB034531
:1088D80003FB0155E40B012F44EA45444FEAD53523
:1088E80008D108213046CDE90045294A1EF0F5FC9B
:1088F800002013E0D8F8047026483946FFF7C2FF75
:1089080078B139462448FFF7BDFF50B130463B46A1
:108918000121224A1EF0E1FC6FF004000AB0BDE814
:10892800F087204618A3D3E900232946FFF7F2FD74
:1089380005460C4610461946194A0023FFF7EAFD7A
:1089480080460F46104619464EF660220023FFF770
:10895800E1FD82468946104619464FF47A72002393
:10896800FFF7D8FDCDE904A9CDE90601CDE9082333
:1089780008213046CDE90287CDE90054094A1EF0A6
:10898800ACFCB5E7AFF30080005C260500000000F2
:10899800C5050300D6050300D9050300E205030059
:1089A80080EE3600F9050300F7B5644DD5F8683157
:1089B800996811F001011AD140F6034001AA08F0A4
:1089C800F5FC0446002840F0B0800198C3681B7885
:1089D8005BB905F1D403D3E8AF2F02F00902D3E85D
:1089E800EF1FC3E8E42F002CF9D110F055FD00214A
:1089F80041F2030001AA08F0D9FC0446002840F01F
:108A08009480019B4E4EDA68D2F80100D2F8051026
:108A180003C6184610F040FD214641F2010001AAA4
:108A280008F0C4FC044600287FD10198C3685A782E
:108A380085F870205A88A5F872201A7985F871206F
:108A4800B3F80720A5F87420B3F80530A5F87630F8
:108A580010F022FD214641F2020001AA08F0A6FC0E
:108A68000446002861D1019FFA68531C41323446FC
:108A780018685968083303C493422646F7D1384624
:108A880010F00AFD0AF028FD044600284DD195F89B
:108A98008A30990613D42B48036813F0060F03D0C5
:108AA8000221294A20F0A4FA95F87C305A064FD4BE
:108AB800244803685B073BD16FF0120435E00721B7
:108AC80040F6334008F036FC0646002800F068817E
:108AD80007210C3010F004FE6FF009030127037022
:108AE8000623C0F802408471047122464770C3709F
:108AF800314640F6334008F059FC0446A8B93946D7
:108B080040F6314008F016FC0646002800F048817F
:108B180039460C3022F0FCF82246314640F6314006
:108B280008F044FC04460028BED0204603B0F0BD3F
:108B38000121064A20F05CFABEE700BF3080002021
:108B4800A8800020EC8700205A280300882803000A
:108B5800002142F2030001AA08F028FC044600287C
:108B6800E3D1019BC04EDA68D2F80100D2F80510B3
:108B780003C6184610F090FC214642F2020001AAF2
:108B880008F014FC04460028CFD1019CE368B3F830
:108B9800012091B249B1D97839B1A5F80421DA7820
:108BA800114606F1280024F0AEFA204610F074FCB5
:108BB8001F2395F87C60A5F8203116F0200618D1FF
:108BC800022140F66D4008F0B5FB0446002800F08D
:108BD800E78002210C3010F083FD01232146037049
:108BE8004670324640F66D4008F0E0FB0446002827
:108BF8009BD195F89C301F0712D5002142F21C002A
:108C080001AA08F0D3FB044600288ED10198C36856
:108C1800D3F80120D3F80530C5E9382310F03CFC1F
:108C280095F8D8309E0625D568460DF1020108F062
:108C38002FFC044600287FF478AF042142F2240078
:108C480008F078FB0646002800F0AA8004210C30C2
:108C580010F046FDBDF8003022460380BDF8023012
:108C68003146438042F2240008F0A0FB0446002865
:108C78007FF45BAF95F8D8305C062AD5022142F222
:108C88002E0008F057FB0446002800F089800221D6
:108C98000C3010F025FDB5F8B031214603800022D4
:108CA80042F22E0008F082FB044600287FF43DAF14
:108CB800014601AA42F22A0008F078FB044600287F
:108CC8007FF433AF0198C3685B7885F8223110F0E0
:108CD800E3FB082142F2010008F02CFB04460028BF
:108CE8005ED008210C3010F0FBFC95F8D81040F24B
:108CF800022311F0400F08BF0323024688074CBF28
:108D080043F02C0043F00C008B0695F8D93048BF8F
:108D180040F0400013F0090F95F8A23018BF40F456
:108D2800006003F00603CF0748BF40F01000062B91
:108D380008BF40F4C070002120F06FF921460022DE
:108D480042F2010008F032FB044600287FF4EDAE41
:108D580095F87C30B5F804119E0624D4C9B941F2BF
:108D6800050001AA08F022FB044600287FF4DDAEC6
:108D7800B5F80431019C4BB9E368B3F80120A5F8B4
:108D880004219A883948114624F0BDF9204610F08C
:108D980083FB082140F6014008F0CCFA044680B96C
:108DA8006FF06804C1E60029F3D1314803685C0715
:108DB80002D16FF00404B8E601212E4A20F018F918
:108DC800F7E708210C3010F08BFC95F8D8300246F4
:108DD800D9072ED44FF00051274820F01EF921461C
:108DE800002240F6014008F0E1FA044600287FF42A
:108DF8009CAE014601AA4FF6014008F0D7FA044696
:108E0800D8B11B48036813F0060F03D01B4A022190
:108E180020F0EEF809F09AFF044600287FF485AEAA
:108E28000BF016FE044600287FF47FAE09F01AF90D
:108E38007BE60BA1D1E90001CFE7019810F02CFBEC
:108E480021464FF6024001AA08F0B0FA0446C8B11C
:108E58000748036813F0060FDCD0094AD7E700BFBC
:108E680090880002008000200881002038810020BE
:108E7800EC870020AC28030010880002CF280300EC
:108E8800F32803000198C368B3F80130A5F8C1308E
:108E980010F002FB95F8C1305B07BBD521464FF6B1
:108EA800034001AA08F082FA30B10748036813F0BA
:108EB800060FAFD0054AAAE70198C3685B7885F822
:108EC800C03010F0E9FAA5E7EC8700201C29030060
:108ED800044B1B681BB11B1A58425841704718466F
:108EE800704700BFC8A3002010B5044606481DF00F
:108EF800BFFB012022F0BDF9044B1A68A24204BF4F
:108F080000221A6010BD00BF2CFA0200C8A300207E
:108F1800F7B500EA01040E46E107754612D5794611
:108F2800174F72463B6801200093164B22F053FC02
:108F3800396815481DF09CFB3968132023F032F975
:108F480023F051F9B20712D57946104E2A463368F4
:108F5800022000930E4B22F03EFC31680D481DF0B4
:108F680087FB3168152023F01DF923F03CF923070E
:108F780003D509481DF07CFBFFDE03B0F0BD00BF40
:108F88004882002046FA02005BFA02004082002074
:108F980090FA0200A5FA0200DAFA020008B521B137
:108FA800BDE8084005481DF063BB05481DF060FB9F
:108FB800BDE80840012022F059B900BF02FB0200B9
:108FC8001EFB020070B503788AB004460E4607AD52
:108FD800032B20D8DFE803F002191B1D114928468E
:108FE800FFF75AFC059563781E210493A378304651
:108FF8000393E3780C4A02932379019363790093EE
:10900800A3791CF03DFD0AB070BD0849E7E708499F
:10901800E5E70849E3E70A212846074A1CF030FD3E
:10902800E0E700BF29FB02004BFB020030FB020017
:1090380037FB020041FB0200BE390300B0B588B01F
:1090480000AF0C4620F017FB3946FFF7BBFF0E4870
:10905800036803F00703022B12D96D468AB06A46EB
:109068000A4BD461C2E905374FF400731384084BE7
:1090780042F8103F00234FF4135102F003FEAD46AF
:109088002037BD46B0BD00BFC88700206EFB020078
:10909800040000012DE9F041374F384EDFF8E08039
:1090A800384D41462846344A1DF07DF800F064FBEF
:1090B80000F0CCFB344C3060236803F00703022B2C
:1090C8003BD903212046314A1DF04EFF236803F0A7
:1090D8000703022B31D92B68032120462C4A1DF0A7
:1090E8005CF8236803F00703022B26D9D8F8003070
:1090F80003212046274A1DF050F8236803F0070390
:10910800022B1AD93B6803212046234A1DF045F853
:10911800236803F00703022B0FD933680321204685
:109128001E4A1DF03AF8236803F00703022B04D9FE
:1091380003212046154A1DF017FF286800F0F6F9AC
:10914800386800F013FA2968132023F02BF8D8F8B0
:109158000010142023F026F83968152023F022F88F
:109168003168162023F01EF823F03DF800214FF453
:10917800C0301BF09FFA91E740820020CCA300206A
:109188004482002048820020C887002084FB020017
:10919800ABFB0200C4FB0200DBFB0200F1FB020098
:1091A80090B589B000AF20F066FA3946FFF70AFF9C
:1091B8000D48036803F00703022B11D96C4688B0E9
:1091C8006A460A4BC2E905374FF400739383084B8C
:1091D80042F8103F00234FF4E65102F053FDA54634
:1091E8002437BD4690BD00BFC8870020FFFB0200A2
:1091F800030000012DE9F041144688B000AF0D4688
:10920800064620F038FA3946FFF7DCFE1C480368AA
:1092180003F00703E4B9022B12D9E8468AB06A467C
:10922800184BD561C2E905374FF400731384164B08
:1092380042F8103F4FF41351234602F023FDC54670
:10924800124B1A6802B91E602037BD46BDE8F0818E
:10925800022BF9D96E468AB06A460D4BC2E907540B
:10926800C2E905374FF4007393840A4B42F8103F64
:1092780000234FF4335102F005FDB546E4E700BF83
:10928800C887002016FC020004000001C8A30020C3
:1092980035FC02000500000173B55B4C236803F040
:1092A8000703022B04D903212046584A1DF05CFE0F
:1092B80013F042F8034660B12268560704D0544AB6
:1092C800012151481CF069FF4FF0FF36304602B0CB
:1092D80070BD00F0DBF9034620B122685507F3D0D2
:1092E8004C4AEDE74C4813F05DF8054648B900F0E4
:1092F8005DF9064670B123685C07E5D00346474A26
:10930800DEE7014646481DF0B3F9294645481DF0F9
:10931800AFF9D9E7444805F02DFE014618B1434896
:109328001DF0A6F9D2E708F0AFFE034620B1226887
:109338005007C9D03E4AC3E740F6CD4000211BF094
:10934800B9F93C480BF062FB50B1236803F00703FE
:10935800022BB9D90321384A2B481DF005FEB3E783
:1093680036480BF061F9364800F0D6F8014608B1E6
:109378003448CCE7236803F00703022B04D9032100
:10938800314A21481DF0F0FD1DF06EFE054610B172
:1093980001462E48C4E701262D4B02222D492E48AE
:1093A800009609F043FF0346B8B12268510704D07C
:1093B80031462A4A14481CF0F0FE0126244B0222AA
:1093C80024492548009609F031FF034628B1226850
:1093D80052073FF479AF224A72E7236803F0070384
:1093E800022B04D903211F4A07481DF0BDFD013592
:1093F80005F00101002013F06DF800214FF4004042
:109408001BF058F9F3E700BFC88700205AFC020098
:1094180074FC02008FFC0200198F0000EBFC0200B4
:10942800AFFC0200CEFC020098E0020005FD02003D
:1094380048FD0200E881002068FD0200008200204B
:109448002482002095FD0200B2FD0200C9FD020041
:109458009CE00200A4E002002C820020EBFD020048
:109468001DFE020043FE02008B1E59425941014B6A
:1094780019707047AAB600204B1E59425941014B3A
:1094880019707047A9B600204B1E59425941014B2B
:1094980019707047A8B6002008B5012BBDF8081050
:1094A8000CD171B90A4B1B680BB9012008BD1078A3
:1094B800012809D800F001009847F6E76FF00C0082
:1094C800F4E76FF00600F1E76FF01200EEE700BF77
:1094D800D0A300202DE9FF411F460D4B05465868D3
:1094E8000C46164680B1D1F80C808047094B3246AD
:1094F80018700123CDE90183BDF828302146009377
:1095080028463B4620F02FFF04B0BDE8F08100BF9D
:10951800D0A30020ABB6002020B1034B02681A602C
:1095280042685A6000207047D0A3002000B50D4B58
:1095380089B01B78019093B10021182202A824F069
:10954800EEF8094B0020039301AB0493042302A90E
:10955800ADF814300DF05CFC09B05DF804FB6FF059
:109568000C00F9E7A9B6002040E1020000B50D4B58
:1095780089B01B78019093B10021182202A824F029
:10958800CEF8094B0020039301AB0493042302A9EE
:10959800ADF814300DF03CFC09B05DF804FB6FF039
:1095A8000C00F9E7A8B600207CE1020030B51E489F
:1095B8001E4C85B0206023F020FD60B91C4803686C
:1095C8005A0703D001211B4A1DF0CEFC4FF0FF348F
:1095D800204605B030BD002023F00FFDE8B916483D
:1095E8001DF046F806238DF803300DF1030301251D
:1095F80001930223206802958DF80C3083682A466F
:109608009C6801A92A23A047044640B1084803687A
:109618005B07DBD0094A2946D6E70948E0E709484D
:109628001DF026F8D4E700BFF4D80200D8A3002024
:10963800308800202FFF020044FF020078FF02005C
:109648005DFF020095FF0200012270B543688A4061
:109658001B6885681A4204690AD10A490A4840F217
:10966800ED321DF012F840F2ED31064822F016FEF8
:10967800236823EA020323602B684FF48032BDE895
:1096880070401847B5FF0200E6FF020070B51C489D
:109698001C4E306023F0B1FC1B4D58B92B6859079C
:1096A80004D001212846194A1DF05EFC6FF012040F
:1096B800204670BD30680821FFF7C6FF041E08DA8F
:1096C8002B685A07F4D0124A012128461DF04CFC99
:1096D800EEE730680921FFF7B7FF041E2B6803DAAD
:1096E8005B07E5D00B4AEFE703F00703022B01D82D
:1096F8000024DDE703212846074A1DF035FCF7E77B
:1097080068D80200E0A300203C880020FEFF020089
:10971800140003003D0003006600030037B5012470
:10972800124B84401B685A68126814420AD11049C7
:10973800104840F2FF521CF0A8FF40F2FF510C48BD
:1097480022F0ACFD1D699A681846526801A9904735
:1097580030B92A68019B5340234214BF01200020DE
:10976800B0FA80F0400903B030BD00BFE0A300208C
:10977800B5FF0200E6FF02002DE9F0410820FFF7DF
:10978800CDFF06460920FFF7C9FF274C0546236889
:1097980003F00703022B1CD9032133462046234A32
:1097A8001DF0EBFB236803F00703022B11D90321FB
:1097B8002B4620461E4A1DF0E0FB236803F00703F2
:1097C800022B06D91B4B1B68032120461A4A1DF0A1
:1097D800D4FBDFF868801A4FB6B198F8003073B937
:1097E8006DB9144A136801331360226802F0070246
:1097F800022A04D9134A03210B481DF0BEFB88F83E
:1098080000603D70BDE8F081002DF8D03B78002B5A
:10981800F5D1084A1368013B1360226802F0070279
:10982800022AECD9084AE6E73C8800207D000300BC
:109838008C000300DCA300209B000300ADB60020D1
:10984800ACB60020A9000300C0000300014B186853
:10985800704700BFDCA3002008B500F0B7F801226C
:1098680000230949C0E9002241610849C0E90233DF
:109878000A60074903610A60064A1360064A1360D2
:10988800064A136008BD00BFE3070300F482002006
:10989800F0820020ECA30020E8A30020E4A300202D
:1098A8002DE9F04107460E46154600F08FF8C368CB
:1098B80004461BB943691A78002A41D10023E360A2
:1098C8006368BB4256F8232008DB324B63612046AD
:1098D80000F062F84FF0FF30BDE8F081511C616183
:1098E80092F80080B8F12D0FEFD1911C6161517889
:1098F8002D29A16004D192786AB901336360E4E745
:1099080049B9244B41462846636123F03AFE0028B2
:10991800DDD0C4F80880D4F808802846414623F0F2
:1099280030FEB8F13A0F636900D070B91B7813B9EB
:10993800636801336360204600F02EF83F20CBE7D0
:109948005A1C42611B788360E5E742783A2A0BD0BB
:10995800002222611B7813B96368013363602046D3
:1099680000F01AF8A068B7E718786268094928B9BA
:1099780001329742626004DD56F82230C4E90431AE
:10998800EAE761612D7820463A2DD5D100F004F838
:109998002846A1E7E30703000268074B1A604268FC
:1099A800064B1A608268064B1A60C268054B1A603B
:1099B8000269054B1A607047F4820020F08200208B
:1099C800ECA30020E8A30020E4A30020004870478F
:1099D800D882002070B5002940D0046801222046B2
:1099E8001CF01CFC0146054620461CF0DFFBC307A3
:1099F80008D41B49AF221B481CF047FEAF2118486A
:109A080022F04CFC294620461CF0E6FB2E18314675
:109A1800002220461CF0CAFB361AB54206D010496F
:109A2800B72210481CF031FEB721E8E72946204646
:109A38001CF0D8FB29461CF0CFFBA3682946B3F5D8
:109A4800004F34BF042208226369A3EBC003134408
:109A580063612046BDE870401CF020BD70BD00BFAA
:109A6800E7000300E6FF02002DE9F8430F4605680A
:109A78001446AA684B1EB2F5004F34BF04210821D2
:109A88003B4010D0C7F1000909EA0709494503F12D
:109A9800FF3028BF494618420CD11F46BCB90026E2
:109AA8003046BDE8F8838F420FD82146BDE8F84319
:109AB8001CF036BD364937484FF4A2721CF0E5FD5C
:109AC8004FF4A271324822F0E9FB9946E6E7B2EB7F
:109AD800D40FE4D9E319591A10461CF0A9FB014622
:109AE80028461CF00FFC80460028D8D0AB6809EB4C
:109AF800C006B3F5004F34BF042308231E442E4488
:109B08007B1E1E44B6FBF7F67E43A6EB09063146DC
:109B180028461CF083FB3444073424F00704641BF4
:109B2800804507464FEAE40408D2024641462846E3
:109B38001CF022FC414628461CF063FC39462846A6
:109B48001CF04AFB3844844208D23946284622464B
:109B58001CF012FC214628461CF053FC0122394611
:109B680028461CF03FFB39461CF036FBAB68B3F5C2
:109B7800004F34BF042208226B6903EBC000AB69B5
:109B8800801A686183422CBFAB61A86188E700BF77
:109B9800E7000300E6FF0200B2F5802F2DE9F0414F
:109BA8000CD2042A20D83F494FF4F9723E481CF0E1
:109BB8006CFD4FF4F9713B4822F070FB0823D21A70
:109BC800CC1D114424F0070421F00701091B2729A3
:109BD8004FEAD1070AD8334940F2FB1232481CF049
:109BE80054FD40F2FB11E6E70423E8E70025046092
:109BF80039463846C4E90355C4E90555A7601CF041
:109C080020FB012100F10802804638461CF010FBB9
:109C18009200D61DF6083044B8423AD8B8F1FF3F52
:109C28002946A2F11C0204F11C00B8BF2A4623F001
:109C380076FD3246294620461CF0ECFA2B462A4689
:109C4800294620461CF0BDFAA7EB060820462946FF
:109C580001221CF0C7FA424631461CF0DBFA3346B3
:109C68002A46314620461CF0ACFA394620461CF0FC
:109C7800D1FA43462A46394620461CF0A2FA39460C
:109C8800204601221CF0AEFA3146BDE8F0411CF036
:109C9800B8BB04494FF4037203481CF0F6FC4FF4B8
:109CA800037188E7E7000300E6FF02002DE9F04FA3
:109CB80097B000AF89460446D7F880B0FA623B6295
:109CC80050B9AA494FF46572A9481CF0DEFC4FF45C
:109CD8006571A64822F0E2FACBF3C00390F802A01F
:109CE8007B6141B9457800780AEB800020444D45F6
:109CF80017D8A0EB0409E378FB61BAF1000F02D092
:109D08001BF0010F16D1FB6953BBFB6A1BB1494617
:109D180020463A6A98474D4628465C37BD46BDE816
:109D2800F08F461C3046FEF7BFFD0130304409F184
:109D38000109DCE7626823787A62FA6A9900B961F6
:109D480004EB8301002A40F006810E464FF000081C
:109D58004D4601EB0A094E4550D101EB0A0610E0C9
:109D68001BF0020FD1D023789A00BA61626804EB25
:109D780083017A62FA6A002A7BD14D46904601EB4C
:109D88000A061BF0050F0CBF02230123FB62FB69C7
:109D980006EB430A0BF00203BB625645BCD016F82B
:109DA800021B16F8013C54F82390724B994502D3D4
:109DB800714B99453AD37B69002B44D0786A1CF0E3
:109DC80030FC00283FD06D48036813F0060F13D00D
:109DD800E9468AB06A466A4B53617B6AC2E9063132
:109DE8004FF400731384674B42F8103F00234FF47D
:109DF800125101F047FFCD46023DCEE716F8013B70
:109E0800F96254F82300FEF74FFDD7F88430F96A59
:109E180001304BB1D7F8883098453EBFD7F8843029
:109E280023F8180008F10108054494E77B6923B179
:109E3800786A1CF0F6FB0028C5D11BF0010F05D18C
:109E4800FB6AED1AA9E7BB6A002BA6D04846FEF7C5
:109E58002BFDD7F8843053B1D7F8883098453FBFE9
:109E6800D7F88420431C22F8183008F1010805446B
:109E780093E7BAF1000F74D01BF0040674D0D046F3
:109E8800002607F1480052463B61B96223F020FCE6
:109E9800B96A3B6901EB0A02BA62FA69F9695200C8
:109EA800FA60BA6A02EB41023A610BF00202BA6048
:109EB800BA6A39698A4267D162781BF0020F18BF03
:109EC80000217A6208BF4FEA5801B2181BF0010F4F
:109ED800D2B240F0DE801BF0040F14BF40460020D1
:109EE8007B616270A070E17020463A6AB969FB6ACA
:109EF8009847051EFFF610AF7B69414623707B6AC1
:109F08003A6A6370FB6984F802A0E37007F14800BD
:109F1800FB6A9847B0F10008C0F2E980BB69A9EB79
:109F28000A01C91AFB683A6AC91AD7E90A039847A5
:109F38000028C0F2DE804FF0000BA84408EB0005B3
:109F480007F1380AB345C0F0A68000213A6A0846EE
:109F5800FB6A9847E0E656464FF0000807F13800DC
:109F680091E75646D04695E7B04693E70A010300C5
:109F7800E6FF02005CD70200AC5E030010880020F8
:109F88003801030004000001BA6A12F8021B12F833
:109F9800015CBA6254F82500574A904202D3574AE6
:109FA800904217D37A693AB1786A7B601CF039FB22
:109FB8007B6800287FF47CAFBA68002A49D00F2E4E
:109FC8003DD94F494FF489624E481CF05EFB4FF46F
:109FD80089617EE67A693AB1786A7B601CF021FB78
:109FE8007B6800287FF464AF1BF0010F0AD00F2EA6
:109FF80025D9434940F23E4242481CF046FB40F214
:10A008003E4166E61BF0040F3FF452AFB8F10F0F64
:10A0180008D93B4940F241423A481CF036FB40F22D
:10A02800414156E608F1280207F1300008F1010124
:10A0380002EB000808F8105C5FFA81F838E706F1CF
:10A04800280207F13000711C161806F8205CCEB201
:10A058002EE7B8F10F0F08D9294940F24B42294899
:10A068001CF013FB40F24B4133E608F1280207F1DC
:10A07800300C08F10100944407F1580208F1020875
:10A0880052FA80F00CF8101C5FFA88F800F8105C9F
:10A098000EE7002024E71BF80A3054F8239087F8CD
:10A0A8003730D7F88430FBB133F81B8001213A6A86
:10A0B800FB6A07F13700984700281ADB0544B8F116
:10A0C800000F06D14846FEF7EFFB00F101081FFA22
:10A0D80088F8414648463A6AFB6A9847002808DBF0
:10A0E80005440BF1010B2DE7D7F88480DEE74546E0
:10A0F80012E6054610E600BF5CD70200AC5E03001E
:10A108000A010300E6FF0200014B1B68184700BF65
:10A11800F882002030B585B004460D461022002193
:10A12800684623F0FCFA02238DF80230044B2A46D5
:10A138002146684601931BF0ABFD05B030BD00BF5A
:10A1480011A10000014B1860704700BFF882002081
:10A1580080B505460E46174698461AF0D9FA0346C2
:10A1680023F0EEFA0446DFF81890424649F800302A
:10A1780039463046A84754F8090005F005FD00BFE8
:10A188000800000038B50D4604462022002123F0BF
:10A19800C6FA0022EB68E361AB68A3612B6823620F
:10A1A8006B68A26263622A6923B1591E194208BF0B
:10A1B80042F0010222610122002104F12C0022F068
:10A1C800A2FF40B1044905482E221CF05EFA2E2158
:10A1D800014822F063F838BDEC010300E6FF0200F5
:10A1E8002DE9F04F002689B0CDE90123436A0446E2
:10A1F8008B428846B2460596079652D34FF0200BFD
:10A2080000F11407EFF3118300938BF31288BFF367
:10A218006F8F3846DDF800901AF0F4FB40B94649D4
:10A22800882246481CF031FA8821434822F036F843
:10A2380038461AF00BFC079A2AB1314620461CF022
:10A2480005FB0023079306A920461CF02BFA069964
:10A25800054641452ED32268236A204613F822106A
:10A2680003EB820A21F0030103F822102168424619
:10A278001CF03CFAE3682060984216D00025384666
:10A288001AF0CEFB40B389F31188BFF36F8F05999D
:10A2980029B1A2690AB12046904700230593002DF1
:10A2A800B0D1504609B0BDE8F08F236943F00803E8
:10A2B8002361E3E718B120461CF032FADFE7DDE955
:10A2C800013213432FD0039122F094FF039950BB1E
:10A2D80038461AF0A5FB40B9174940F23112174821
:10A2E8001CF0D3F940F231119FE7009B83F31188EA
:10A2F800BFF36F8F04F12C00DDE9012318F0BCFBDC
:10A308000546EFF311898BF31288BFF36F8F384638
:10A318001AF078FB002882D0B5FA85F538461AF08D
:10A3280095FB6D09ABE7204607AB05AA26681CF02C
:10A3380016FA0546A3E700BF12020300E6FF020073
:10A348002DE9F0410446C36908460D46984704F1D3
:10A3580014060746EFF31188202383F31288BFF30E
:10A368006F8F30461AF04EFB40B9164988221648BE
:10A378001CF08BF98821134821F090FF30461AF021
:10A3880065FB2B783A4643F001032B706168204641
:10A398001CF0ACF9606020461CF073FA30461AF0E5
:10A3A8003FFB40B9074940F2311207481CF06DF9EC
:10A3B80040F23111DFE788F31188BFF36F8FBDE8F2
:10A3C800F08100BF12020300E6FF02002DE9F84306
:10A3D800044600F11407EFF31188202383F3128851
:10A3E800BFF36F8F38461AF00DFB054640B9304968
:10A3F800882230481CF049F988212D4821F04EFF69
:10A4080038461AF023FB2369A26813F0080F02D11B
:10A4180063689A4200D9636A9B1A002B3AD0216A72
:10A4280011F8223001EB820913F0030035D002281D
:10A4380003D151F82260B60805D1D8071AD4484686
:10A44800E36998470646A168324620461CF04EF953
:10A458003146A06020461CF057F938461AF0E0FA59
:10A46800E8B9134940F2311212481CF00EF940F2D3
:10A478003111C2E743F0020301F82230E36948468C
:10A48800A56898472946024620461CF02FF9002562
:10A49800A060E2E71D46A946DFE70546FBE788F32B
:10A4A8001188BFF36F8F002D95D14846BDE8F8831A
:10A4B80012020300E6FF02002DE9F0410446C369D9
:10A4C80008460D46984704F114070646EFF311882D
:10A4D800202383F31288BFF36F8F38461AF092FA5D
:10A4E80040B92349882223481CF0CFF88821204806
:10A4F80021F0D4FE38461AF0A9FA2B786FF300033E
:10A508002B7023699B0705D5E268236A03EB820356
:10A518009D421DD12B786FF341032B70D4E9023192
:10A52800994204D1324620461CF0E0F8A06031463A
:10A5380020461CF0E9F838461AF072FA68B90C4956
:10A5480040F231120B481CF0A0F840F23111CEE76E
:10A558002B6866F39F032B60EDE788F31188BFF340
:10A568006F8F04F12C00BDE8F04118F04BBA00BF22
:10A5780012020300E6FF0200044608B5EFF3118358
:10A58800202383F31288BFF36F8F11F0DDFB204681
:10A5980005F0B0FA02481CF06BF81EF086FAFCE7EA
:10A5A8003F0203002DE9F84F0446A38B084619071C
:10A5B800164612D4022803F0070162D120461CF087
:10A5C8007AF988B10138042800F22581DFE810F013
:10A5D800590023017E00C800F50001280CBF43F094
:10A5E800100143F02001A18304F114001AF018FAB5
:10A5F800002800F0AB8086F31188BFF36F8FBDE8A9
:10A60800F88F03F00702501F01281ED80020062AE1
:10A618002768C4E9000014D13A4603E0E08B013012
:10A62800E0831268002AF9D123F0070343F00202FD
:10A638002046A2831CF03FF990B342F02002A28387
:10A648002EE023F007039AB2F2E7042A33D123F06D
:10A6580007039AB22046A2831CF02DF910B142F0EC
:10A668002002A283A38B03F00709894540F0DC8010
:10A67800A18BCA0640F1218121F01003A38301F0C8
:10A688000701D4F81880A38BB8F1000FB9DA0022BB
:10A69800276823F00703C4E9002243F00103A383DA
:10A6A800A38B03F00709894540F0BF80002FDFD056
:10A6B8000025AA4640E0854940F21B1284481BF059
:10A6C800E4FF40F21B11814821F0E8FD41B17F49C8
:10A6D8004FF4AB727E481BF0D8FF4FF4AB71F2E732
:10A6E800236843B9794940F2571279481BF0CDFFE6
:10A6F80040F25711E7E723691D6845B973494FF4DC
:10A70800AD7273481BF0C1FF4FF4AD71DBE70F4624
:10A7180088464FF00609A38B23F0070343F006038E
:10A728009BB2A383A268002A40F08180002F40F0EA
:10A738008180002D9CD0BA4643F0080304F1140B25
:10A748005846A3831AF06CF9002875D1614940F284
:10A7580031125F481BF099FF40F231115D48B3E7B1
:10A76800022908D0594940F25D1259481BF08DFF63
:10A7780040F25D11A7E7E78B47B154494FF4AF7238
:10A7880053481BF082FF4FF4AF719CE723695D6863
:10A7980045B94E4940F261124D481BF076FF40F230
:10A7A800611190E7A38BB84623F0070343F0040335
:10A7B8009BB24FF00409A383B4E7012908D04349A9
:10A7C8004FF4B27242481BF060FF4FF4B2717AE75F
:10A7D800236843B93D4940F265123D481BF055FFD7
:10A7E80040F265116FE723699D6845B937494FF411
:10A7F800B47237481BF049FF4FF4B47163E7002780
:10A80800A38BB84623F0070343F005039BB24FF030
:10A818000509A38386E72D4940F26B122C481BF0EB
:10A8280034FF40F26B114EE7002700257AE74FF01E
:10A83800010A81E792467FE786F31188BFF36F8F9D
:10A84800BAF1000F16D147BB15B120462249A847D7
:10A85800EFF31186202383F31288BFF36F8F5846D6
:10A868001AF0D0F808BB1B49882219481BF00DFFC5
:10A87800882173E7A1680029E5D00E680029E2D095
:10A8880043464A462046D1F804A0D0471EB1336853
:10A8980031461E46F2E73346FAE7394643464A460A
:10A8A80020463F681CF033F8CDE758461AF0CEF83A
:10A8B800A38B23F00803A383DAE68B067FF594AE17
:10A8C80021F02003A38301F0070177E66802030063
:10A8D800E6FF020012020300E5A80000F8B50446EE
:10A8E8000D4600F11406EFF31187202383F3128835
:10A8F800BFF36F8F30461AF085F840B909490A4806
:10A9080088221BF0C2FE8821064821F0C7FC304689
:10A918001AF09CF8A5613A462046BDE8F8400121A6
:10A92800FFF740BE12020300E6FF02002DE9F047E0
:10A9380004460F461BF0DBFF051E5DDB04F114091E
:10A94800EFF3118A202383F31288BFF36F8F4846F1
:10A958001AF058F8804638B93349882233481BF032
:10A9680094FE882130483CE048461AF06FF84FF6CC
:10A97800FF72E38BA68B934206F007063FD0022EA8
:10A9880010D135460133E38348461AF049F80028C8
:10A998003BD1254940F2311224481BF076FE40F2A3
:10A9A8003111DFE7062E13D8DFE806F0092C121262
:10A9B800090409006FF085054FF00008E4E700235B
:10A9C8003B6063687BB9C4E900777EB13546F3E73D
:10A9D800174916484FF4E4721BF057FE4FF4E47120
:10A9E800134821F05BFC1F606760EEE752460221C6
:10A9F8002046FFF7D7FD35462846BDE8F0876FF0BB
:10AA08000A05D9E76FF00405D6E78AF31188BFF382
:10AA18006F8FB8F1000FEFD0002332463946204639
:10AA28001BF075FFE8E700BF12020300E6FF020013
:10AA380068020300F8B5054600F11406EFF3118724
:10AA4800202383F31288BFF36F8F304619F0DAFFA3
:10AA580038B92049882220481BF017FE88211D4854
:10AA680025E0304619F0F2FFAC8B04F00704022C05
:10AA780012D0012C0CBF6FF004046FF0850430462F
:10AA880019F0CEFF08BB134940F2311212481BF0EF
:10AA9800FCFD40F23111E2E7EB8B53B90F490E4848
:10AAA80040F2EF121BF0F1FD40F2EF110B4821F0DC
:10AAB800F5FB013B9BB2EB83002BE0D13A462146E4
:10AAC8002846FFF76FFD2046F8BD87F31188BFF3CE
:10AAD8006F8FF8E712020300E6FF02006802030026
:10AAE80008B54268034602F00302022A81600AD0D0
:10AAF800032A4FF0000103D0012A0AD1596006E069
:10AB08001868596008BD186800225A6050B90020BA
:10AB1800F8E70649064845221BF0B7FD45210348DA
:10AB280021F0BCFB1AF0DCFDF1E700BF8D02030049
:10AB3800E6FF02002DE9F34180460E461546002740
:10AB48002A4601A940461BF01FFF0446024631462B
:10AB5800019822F0BDFD2D1B2744264401D0002C6E
:10AB6800EED1394640461BF02CFF40B10649074854
:10AB780049221BF08AFD4921034821F08FFB384602
:10AB880002B0BDE8F08100BFB3020300E6FF020097
:10AB98002DE9F34180460D461646002732464046C9
:10ABA80001A91BF023FF04462DB10246019928464E
:10ABB80022F08EFD2544361B274401D0002CEDD110
:10ABC800394640461BF02EFF40B1064906488E2202
:10ABD8001BF05BFD8E21034821F060FB384602B074
:10ABE800BDE8F081B3020300E6FF020010B548B9E2
:10ABF8000E4803685A0702D00D491BF029FF6FF071
:10AC0800150010BD83684BB9084803685B0702D07C
:10AC180008491BF01DFF6FF00400F2E71B6813B131
:10AC2800BDE8104018471846EBE700BF38880020F9
:10AC3800F50203000603030010B548B90E4803687F
:10AC48005A0702D00D491BF003FF6FF0150010BD25
:10AC580083684BB9084803685B0702D008491BF0B2
:10AC6800F7FE6FF00400F2E75B6813B1BDE810402F
:10AC780018471846EBE700BF38880020F5020300A4
:10AC88000603030070B508B101B14AB90E4803685C
:10AC98005A0702D00D491BF0DBFE6FF0150070BD9E
:10ACA80084680CB1E5684DB9074803685B0702D0B2
:10ACB80007491BF0CDFE6FF00400F0E741F8040BE4
:10ACC800E368BDE870401847388800202403030073
:10ACD8000603030010B5044648B915480368590728
:10ACE80002D014491BF0B4FE6FF0150010BD0068C7
:10ACF80048B90F4803685A0702D00F491BF0A8FE4D
:10AD08006FF00100F2E783680BB11B694BB9084883
:10AD180003685B0702D009491BF09AFE6FF0040034
:10AD2800E4E7616898470028E0D12060DEE700BFCB
:10AD38003888002050030300610303000603030062
:10AD480070B51346044648B914480368590702D039
:10AD580013491BF07DFE6FF0150070BD006848B9FF
:10AD68000E4803685A0702D00E491BF071FE6FF0B7
:10AD78000100F2E782680AB195684DB9074803688F
:10AD88005B0702D008491BF063FE6FF00400E4E79C
:10AD98000A46AC466168BDE87040604738880020C4
:10ADA800500303006103030006030300034A13680A
:10ADB8000BB9526813600020704700BFFC82002066
:10ADC80030B50C460E4985B00291D0F8AC11054655
:10ADD800CDE9003100F1E0014FF0FF33204616F0D5
:10ADE800A3FD50B9012384F86430D5F8A83123B104
:10ADF800204605B0BDE83040184705B030BD00BF5B
:10AE0800516B020038B50C46114605461BF09EFEF4
:10AE1800034638B9284604491BF098FE034600202B
:10AE2800236038BD0120FBE7E30703002DE9F04F5D
:10AE380001238146056946688FB005F56B77D7E829
:10AE4800EF2F002A03D1C7E8E13F0029F7D10CBF53
:10AE58001A46002240F0BF80B368B16A05F5E4786D
:10AE68001C1F10461BF0F6FE84427DD8013A00F004
:10AE7800AC80B2FA82F24FF00044D44072682046A7
:10AE8800073222F00302C5F86022B16A1BF0E2FE25
:10AE9800C5F86402B36A40466343033323F00303EF
:10AEA80002EB4302230103EB4403093323F00303BA
:10AEB80003EBC403C5F858221A440832C5F85422D3
:10AEC8007368C5F85C42C5F85032444BC5E9A963BC
:10AED800D9F80030C5F8FC31316800F0EBF90446C8
:10AEE80000283FD1D9F810B0D9F804A0D9F800301B
:10AEF8000BF53079059004934846DAE90734012BBD
:10AF080008BF103C18F04CF9DAF82400344904ABB7
:10AF1800009301EB8021234648464FF4806218F0E5
:10AF280055F92021DAF824302E4A06A81AF0A8FD8F
:10AF380006A9484618F0DEFB2B490BF52C7017F0D4
:10AF4800BBFFDAE9050183685C684CB15B46274AB8
:10AF5800A047044630B9DAE9050183681B692BB9B3
:10AF68006FF05704002129E001327AE7012298475F
:10AF780004460028F6D11E4B2846C5F8A8311D4BBB
:10AF8800C5F8AC311C4B0393D5F810320293D5F8B1
:10AF98000832CDE90083D5F86832B26AD5F8A8132B
:10AFA80000F050F904460028DCD105F1E00016F065
:10AFB80057FE0028C5F8B0030ADB022138461BF00B
:10AFC800F9FD20460FB0BDE8F08F6FF00B04C9E71C
:10AFD8006FF01504C6E76FF07704F2E7A76B02007D
:10AFE800F8BF0020860303008D6B0200816B02000E
:10AFF80005B00000336D0200ED6B020013B5044686
:10B0080040B100230122CDE90032074BD0E90912F3
:10B0180016F03EFCA36E1B6823B1E06E02B0BDE8DB
:10B028001040184702B010BDE307030013B50446EB
:10B038000846216901F56B71D1E8AF1F022910D1CB
:10B0480093B1A0B10121CDE900311346D0E909122D
:10B0580016F01EFC074B984208BF6FF00B0002B0B9
:10B0680010BD6FF00F00FAE76FF04C00F7E76FF0D4
:10B078000100F4E72EF8FFFF2DE9F743884615464F
:10B08800066906F56B73D3E8AF3F022B5FD11368EF
:10B0980023B96FF0150003B0BDE8F0831B78002BCF
:10B0A800F7D0D6F8A893B9F1000F33D106F5D877C1
:10B0B8004FF0FF324FF0FF33384617F097FA30461B
:10B0C8002A6801A9FFF79EFE019C1CB938461BF0AF
:10B0D8006FFDDEE705F10803A3666B6984F86490E9
:10B0E800E366E46360B138461BF062FD21463046F2
:10B0F800236E2A68FFF764FE0020C8F80040CAE7FC
:10B108002022296804F1400022F05AFA38461BF040
:10B118004FFDF1E730460F491BF018FD04460028A3
:10B12800B7D005F1080383666B69C063C366002363
:10B1380080F8643020222968403022F041FA224603
:10B148000121304600F060F80028D5D0A1E76FF063
:10B158000F00A0E7E307030010B50C46006900F5EF
:10B168006B73D3E8AF3F022B0FD189B10A4900F5C1
:10B178002C7017F0A5FF204621F0ACFD70220021AD
:10B18800204622F0CCFA002010BD6FF00F00FBE73C
:10B198006FF00100F8E700BFF0A300202DE9F04FA1
:10B1A80005460E4690460027D0F8B0A085B0AAF50F
:10B1B800AE7421463046FDF765FBE0B9114BA4F1AA
:10B1C800400B0293DAF810303246CDE90083294665
:10B1D8004FF0FF335846AAF5CE7916F0A5FB60B9B3
:10B1E8007023012203FB079383F86420DAF80C30FC
:10B1F8000BB158469847703417B105B0BDE8F08FC9
:10B208000127D6E7616D02001FB5144690B18AB1D7
:10B21800012912D10A4B00F1E0010293D0F8AC31B8
:10B22800403201934FF0FF332046009316F07CFB29
:10B2380004B010BD6FF01500FAE70020F8E700BF72
:10B24800616D02002DE9F04387B00E46DDE90E81FD
:10B258001446DDE910251F4630B329B3DFF850C086
:10B2680000F1E009002D08BF65469EB9CDE9034409
:10B2780000F5CE742046059621F0A6FE03ABCDE975
:10B2880000432A463B464146484616F00FFD07B0A4
:10B29800BDE8F083002241460E9248462A4607B090
:10B2A800BDE8F04316F02EBE6FF01500EFE700BFC3
:10B2B800A5B10000F0B50E46044689B0002872D04A
:10B2C800436B0BB9394B436301232246E3630023E5
:10B2D800D4F8981004F1400042F8301FCDE901334A
:10B2E8004FF0FF330093D4F89C3021F0D8F9304A5E
:10B2F80006AB92E8030083E80300184616F0CEF97F
:10B308000546D8B904F1340016F0AAF90546A8B9DB
:10B31800616B284805AA21F0A4F9054670B9059B78
:10B328009A6872B10C33D4F89400C4F8A0301BF0BA
:10B3380044FDC4F8D40030B96FF00B05284609B0B5
:10B34800F0BD0346EFE7D4F894001BF036FDC4F8CF
:10B35800D8000028F0D0D4F88C30D4F8A010C4F865
:10B36800A8300423C4F8AC30C4F8C4300223A36264
:10B37800114BB4F89420D4F8D470C4F8B810C4F8B9
:10B38800D010D4F89010236204F1A403A4F8B020DC
:10B39800C4F8A470C4F8C010A4F8C820C4F8BC004D
:10B3A800A661E362CAE76FF01505C7E797030300D4
:10B3B80050DE0200A1030300D0E1020030B50022F4
:10B3C80089B00F490F4822F001F800220023002419
:10B3D800CDE906230E230C4DCDE903344FF400626A
:10B3E8002846CDE90144094B0949009418F08CFA24
:10B3F8000849284618F07EF9204609B030BD00BF3C
:10B408004DB50000109500204090002025B80000A0
:10B41800F8C30020A90303002DE9F04704460746B6
:10B428004FF00109DFF8508014B93846BDE8F087BD
:10B4380094FAA4F5B5FA85F509FA05F32E0108EB97
:10B4480005156FEA030A24EA03042B7B002BEBD0D3
:10B4580058F806301B694BB94644736804222846DD
:10B46800196807EA0A0700F095FBDDE728469847C0
:10B478000028D9D1F0E700BF68DD02002DE9F047C8
:10B48800DFF8AC902B4C8046A9EB04038F2B0F46BA
:10B498000AD9294940F23F1228481BF0F6F840F231
:10B4A8003F11254820F0FAFE25481BF0D8FC064637
:10B4B80040B300252846BDE8F087237B6BB123689D
:10B4C800DB680BB12046984723681B6993B963680A
:10B4D80004222046196800F05DFB013610344C4503
:10B4E80014D915494FF4A67214481BF0CEF84FF43E
:10B4F800A671D6E7204698470028E8D00AFA06F34E
:10B508001D43EAE705464FF0010AE8E7D5D3B8F14D
:10B51800000FCFD0002DCCD02846FFF77DFF054681
:10B52800002FF7D000214FF4A47019F0C3F8F1E709
:10B5380078DD020068DD0200B1030300E6FF0200C7
:10B548002CA40020014817F05DBA00BFD489002060
:10B5580008B5034608462BB1044A136000F034FED0
:10B56800002008BD6FF01500FBE700BF288300200E
:10B5780010B5044C237813B9034817F043FA012394
:10B58800237010BDAEB60020D489002010B5044643
:10B5980006481BF064FC3CB1054BD3E8EF1F0139AA
:10B5A800C3E8E21F002AF8D110BD00BF24A4002080
:10B5B80028A4002000200146034BD3E8EF0FC3E87E
:10B5C800E21F002AF9D1704724A4002070B5FFF7C4
:10B5D800F1FF05460D4C0E4EB44215D90D490E48E3
:10B5E80040F2FF121BF051F840F2FF11094820F019
:10B5F80055FE63685B792BB123685B6813B12946F4
:10B60800204698471034E7E7F3D370BD68DD0200A1
:10B6180078DD0200B1030300E6FF020010B5044C18
:10B6280004492046FEF7AEFD034B1C6010BD00BF69
:10B6380080870020FCE102001CA4002008B500233C
:10B64800084A4FF400411370074A08481360084A33
:10B658001360FFF77DFFFFF7E1FFBDE8084000F04A
:10B66800DBB900BFAFB6002024A40020636E02003F
:10B6780028A400200146002200230148FEF7B0BD9F
:10B68800808700200148FEF7A1BE00BF8087002008
:10B69800024B01461868FEF70FBF00BF1CA400202C
:10B6A80001481BF0FBB800BF808700202DE9F0415E
:10B6B800394B187800286DD0FFF7E4FF04460028BE
:10B6C8003DD0364BD3E8EF1F0139C3E8E21F002A0B
:10B6D800F8D1334DDFF8CC8045452CD93249334871
:10B6E80040F2F3121AF0D1FF40F2F3112E4820F085
:10B6F800D5FD6B685B793BB121784B0706D52B6884
:10B70800214628461B6898471035E5E720462688D5
:10B71800C1F3C20700F04EFBC6F382160246002EA4
:10B72800EDD00028EBDB01233946284600F076FAF5
:10B73800B042E9D3E3E7DCD32046FFF7A9FF1C4B6F
:10B748001C4C1B68002B19DD21F0F9FD4FF47A72AF
:10B75800A0FB020302FB0131C30B43EA4143D4E9D6
:10B7680000209B1A40F2E9324FEAD13161EB000127
:10B77800934271F1000101D3FFF728FFD4E90032A9
:10B7880013F57A7342F10002C4E90032BDE8F041D2
:10B79800FFF786BFBDE8F081AEB6002028A40020E0
:10B7A80068DD020078DD0200B1030300E6FF020055
:10B7B80024A400200895002070B5134D297809BBF2
:10B7C8000120FFF75BFE114C114EB44213D9114909
:10B7D80011484FF4DC721AF058FF4FF4DC710D4831
:10B7E80020F05CFD63685B791BB1236820469B6889
:10B7F80098471034E9E7F5D3FFF758FF0028FBD145
:10B8080001232B7070BD00BFAFB6002068DD0200B9
:10B8180078DD0200B1030300E6FF02002DE9F047DE
:10B828002D4B2E4FFB1A1B090AD12D4940F28D32A0
:10B838002C481AF02AFF40F28D31294820F02EFDBD
:10B8480000210846FFF71AFE044650B340F2676825
:10B858004FF0000921F074FF234B244A1B58136052
:10B8680033B1234B1B68092B02DD224817F0CAF8B5
:10B878000025DFF880A044B12046FFF7CDFD04463F
:10B8880018B94FF0FF384FF0FF39FFF70FFF0646A2
:10B8980028B95DB942464B46504617F0EDF8354693
:10B8A800E9E74FF0FF384FF0FF39D3E70A4D08E0DA
:10B8B800F0D22B689B691BB1002228461146984795
:10B8C8001035BD42F4D9064940F2813205481AF0D4
:10B8D800DCFE40F28131B0E768DD020078DD02006D
:10B8E800B1030300E6FF02000800000020A40020C6
:10B8F80028A40020D489002013B526481BF0AFFAED
:10B90800254B1B785BB3EFF31184202383F3128854
:10B91800BFF36F8F214819F075F840B92049882284
:10B9280020481AF0B2FE88211D4820F0B7FC1B48B9
:10B9380019F08CF8FFF7BAFE184819F071F840B9F9
:10B94800174940F2311217481AF09FFE40F23111A0
:10B95800EAE784F31188BFF36F8F02B010BD124B72
:10B968001B68002BF9D050B9002200230F48CDE9FD
:10B9780000234FF40042002319F0DEFBEDE709280D
:10B98800EBD10A4821F02EFD094802B0BDE810406D
:10B9980017F038B828A40020AFB6002018A400205B
:10B9A80012020300E6FF020020A4002010950020E8
:10B9B800D489002010B5064B04461B6898472146D9
:10B9C800A0600448FEF7BCFCBDE81040FFF794BF38
:10B9D800288300208087002008B540B9054906481B
:10B9E800ED221AF052FEED21024820F057FC436880
:10B9F800187908BD0F040300E6FF0200044A054B4E
:10BA08009B1AB1EBD30F34BF52F8310000207047B6
:10BA1800D0DB020068DD020000210B480B4B30B57B
:10BA28001B1A0B4CDB080430994200D130BD10F8CA
:10BA38003120256802F0070225F007052A4344F85B
:10BA4800042B0131F0E700BFD0DB020068DD020003
:10BA5800C8870020F8B5064600240A4F0A4DED1B9A
:10BA6800ED08AC4203D14FF0FF342046F8BD57F83B
:10BA7800340020B13146FCF705FF0028F5D0013429
:10BA8800EFE700BFD0DB020068DD02002DE9F047D8
:10BA980015461F462C4A2D4B8846D21AB5EBD20FB5
:10BAA8000AD32B492B4840F2B5121AF0EEFD40F2AA
:10BAB800B511274820F0F2FB00281CDA4FF0000AE5
:10BAC8005446DFF89490254EA6EB09063609B24590
:10BAD80002D12046BDE8F08709EB0A10FFF77CFF8A
:10BAE8003B462A464146FFF7D1FF844238BF044609
:10BAF8000AF1010AEBE703EBC5031C7914B1BC4258
:10BB080028BF3C460722164EC3B203EB430356F840
:10BB180025009A4020EA020004F0070202FA03F323
:10BB280018430022032320FA03F101F007018A4297
:10BB380003F1030338BF0A461E2BF4D120F0070097
:10BB4800104346F82500C4E768DD0200D0DB020098
:10BB5800E2030300E6FF020068DD020078DD020070
:10BB6800C8870020F8B506460F460024074D084B45
:10BB7800ED1AED08AC4200D3F8BD002122B23B46D5
:10BB8800304601341BF079F9A4B2F3E768DD02000E
:10BB9800D0DB020038B5104B0D46C31A1B11013318
:10BBA80004461146DBB240B90C490D48DF221AF0B1
:10BBB8006CFDDF21094820F071FB4268137143686E
:10BBC8009971FFF7CFFF012263681D6063685A719E
:10BBD800BDE83840FFF7CCBC68DD02000F04030065
:10BBE800E6FF020010B5044650B90A490A4840F277
:10BBF80033121AF04AFD40F23311064820F04EFB8A
:10BC080043685B7913B10021FFF7ACFF002263683A
:10BC18005A7110BD0F040300E6FF020038B5144640
:10BC28001D4690B1FFF7D8FE114A124B9B1AB4EB90
:10BC3800D30F0DD31049114840F2A1121AF025FD77
:10BC480040F2A1110C4820F029FB4FF0FF30EBE740
:10BC580055B10B4BC0B253F8243000EB400023FA27
:10BC680000F000F0070038BD02EBC4021079FAE7D3
:10BC7800D0DB020068DD0200E2030300E6FF0200F9
:10BC8800C88700202DE9F04F8FB0C1F34A2804AFD0
:10BC98000D469146B8607B600C0DB8F1000F6BD073
:10BCA80000264FF0040B4FF00A0A07F11403C7F8F7
:10BCB8000C80C7E907667E620193CDF808B0CDF81D
:10BCC80000A007F11C0332464846F968FDF7EEFF6D
:10BCD800B0F5006F034620D33048036813F0060F11
:10BCE80017D06C468AB0D9F8041004AB2C4D1A460C
:10BCF800C3E9055140F2FF71D9614FF4007119840D
:10BD0800284B42F8103F4FF412513346FFF7BAFF61
:10BD1800A5462C37BD46BDE8F08FC0F30A0804F1EC
:10BD28001700184420F0070080083B60FFF7A2FCCA
:10BD380068F35325044638B33B6800F11001C7E99E
:10BD4800083607F11403F961CDE900A3CDF808B06E
:10BD58004846154AF96807F11C03FDF7A7FF0028B4
:10BD680012DA124912484FF4A2721AF08EFC4FF4FC
:10BD7800A2710E4820F092FA04F1170020F0070093
:10BD88008008FFF777FC044668F353252A462046C7
:10BD98007B68B9681BF098F8BBE700BF40880020B3
:10BDA8005004030004000001A56E02008F04030084
:10BDB800E6FF0200406820B1034BC01A40F38F0031
:10BDC80070474FF0FF307047C88700200EB403B5A6
:10BDD80003AB53F8042B01460448019304F0BCFA62
:10BDE80002B05DF804EB03B0704700BF15BE000059
:10BDF800CA0605D48B064CBF02490349FFF7E6BFC4
:10BE0800704700BFE2070300825B030038B54B6848
:10BE180005461A68CB680C469A4202D108461BF0C0
:10BE2800D0F86368D3E8EF2F511CC3E8E01F00285F
:10BE3800F8D1A3689D5463681A68E3689A4208D9E0
:10BE4800054906487A221AF020FC7A21024820F097
:10BE580025FA002038BD00BFBB040300E6FF02003E
:10BE68002DE9F04F89B09B46149B9DF84CA0069392
:10BE7800159B04460593169B0D469046179E049302
:10BE8800BAF1000F00F0AC80BAF1040F0AD9A24948
:10BE980040F26222A1481AF0F8FB40F262219E4863
:10BEA80020F0FCF906F4807307931AF0E4FF06F01B
:10BEB8000209024600283FD020469949FFF786FF2D
:10BEC8000746B9F1000F08D016F0440F36D12A46BC
:10BED80020469449FFF77AFF074406F0010353B15F
:10BEE800914B204653F82A20904B9149002A08BFCD
:10BEF8001A46FFF76BFF06F48073002B4AD006F052
:10BF08000803002B64D1B8F1000F67D042462046E1
:10BF18008849FFF75BFF0546069B3D44002B6ED121
:10BF2800049B002B40F08280F30700F1EF8031463C
:10BF38002046FFF75DFFE3E00746C2E77E4B18683F
:10BF48000028C9D07D4B4FF47A791B684FF46161A2
:10BF5800B5FBF3F5B5FBF0F300FB135509FB05F54D
:10BF6800B3FBF1F2B5FBF0FE4FF03C0C01FB1231D4
:10BF780000FB1E55B1FBFCF309FB05F5B5FBF0F51D
:10BF88000CFB131120460091CDE901E56C49FFF740
:10BF98001DFFA1E706F00803EBB16A4B204653F8F2
:10BFA8002A206949FFF712FF0546B8F1000F05D0AE
:10BFB800424620465F49FFF709FF0544BBF1000FE1
:10BFC800AAD05A4620466149FFF700FF0544A3E777
:10BFD8004FF0000BE1E706F00805E6E745469BE76A
:10BFE800BBF1010F069B06D1D3B9049B002B00F0CF
:10BFF800878000251AE0002BF7D0554811E05548F6
:10C008002246069B54491AF0DBFA00280BDA42490B
:10C018004FF42F7241481AF038FB4FF42F713EE766
:10C028004C485546ECE7049B002B65D0DFF82C8183
:10C03800DFF82C91049F3146102F204628BF102787
:10C048004FF0000BFFF7D4FE5D4542DC059B4946E7
:10C0580020461A78FFF7BAFE4FF0010B1BF0070FC6
:10C0680003D141462046FFF7B1FE5F4538D9059B0D
:10C078004946204613F80B20FFF7A8FE0BF1010BE9
:10C08800BBF1100FEAD14FF0000B20463549FFF7FE
:10C098009DFE5A46059B20469A5CA2F120015F2925
:10C0A80028BF2E223049FFF791FE0BF1010BBBF19F
:10C0B800100F1AD01BF0070F03D141462046FFF797
:10C0C80085FE5F455A46E5D841462046FFF77EFE85
:10C0D800EBE741462046FFF779FE0BF1010BB3E78A
:10C0E80020462249FFF772FEC8E7059B3B440593AB
:10C0F800049BDB1B04939DD1BAF1000F7FF414AFAE
:10C10800204609B0BDE8F04F1AF05BBF2046074A49
:10C118000749FFF75BFE0AE7BB040300E6FF0200DE
:10C12800EF040300F304030010E20200EA04030032
:10C13800A80A03001805030034A4002030A4002036
:10C14800FC04030024E202001C050300220503008E
:10C15800E56F020015BE0000610301004E5B03009D
:10C16800270503002D0503003C1103004C5B030069
:10C1780042F20F7373B58B4228BF0B46056804461D
:10C18800052168460D4A19F07BFC06466368284677
:10C1980004225B680A491AF006FF6368324669465A
:10C1A80028465B681AF0FFFE6368172228465B681A
:10C1B80004491AF0F8FE02B070BD00BFCD4003007C
:10C1C800470503002F05030000210123064A90427A
:10C1D80006D8064A01B901231360054B1860704759
:10C1E800012140085B00F2E740420F0030A4002024
:10C1F80034A40020014B03600020704738E202009D
:10C2080010B5084C86B024788DF8174001240294A4
:10C218000DF117040194BDF8204000941EF0A3F816
:10C2280006B010BD49870020002330B585B005460B
:10C23800CDE9023301904FF0FF334FF0FF320B4846
:10C2480016F0D4F90A4B1C684CB9284600F012F8CD
:10C258000446064816F080FA204605B030BD6368EB
:10C2680020461B6801A998472468EDE794890020B7
:10C2780038A40020F8B5064600251C4C1C4FBC42CB
:10C288001BD91C491C48F4221AF0FFF9F42119485B
:10C2980020F004F82EB9E3685BB928460546143443
:10C2A800EDE70022314620681AF0E1FE0028F2D1BD
:10C2B800F3E79847002DF0D1F0E7EBD30F4B1C685C
:10C2C80094B1143C1EB9E3684BB96469F8E70022DD
:10C2D800314620681AF0CBFE0028F4D1F5E79847DC
:10C2E800002D08BF0546F0E72846F8BDBCDD020072
:10C2F800D0DD020070050300E6FF020040A4002024
:10C3080008B50821024B034A1AF0E7FF002008BDD0
:10C31800AB050300B205030030B585B0054601A999
:10C3280011481AF03DF9044650B103460121284648
:10C338000E4A1AF0D2FF6FF00704204605B030BD50
:10C348002846019B08210A4A1AF0C7FF2846029B83
:10C358000821084A1AF0C1FF08212846039B064A0B
:10C368001AF0BBFFE9E700BF688900204706030011
:10C378007E06030093060300A806030010B50446D2
:10C388000FF0D8FC08210346074A20461AF0A5FFFB
:10C398002046064A08211AF0A0FF2146044818F052
:10C3A800A3FB002010BD00BFBD060300DC06030090
:10C3B800BDC30000F0B59BB004460D46D0F8AC6094
:10C3C80020F01EFF024621F0BBF9374B1958374BB6
:10C3D8002846002A18BF1346354ACDE90043354B95
:10C3E8008C4218BF13460821334A1AF076FFD4E965
:10C3F8000A23CDE9022394F90E3008210093237B08
:10C4080028462E4A1AF069FF202212A9204617F062
:10C4180081F9626F0346082128460092284A1AF0DB
:10C428005CFF204606A920F002FF18BB0CA820F0EC
:10C4380008FF10BBDDE90C236421069FDDF81CE032
:10C44800A7FB010C01FB0EC1FCF7B4F83B460090BA
:10C45800082128461B4A1AF040FF204605A920F06B
:10C46800DFFE034678B108212846174A1AF035FF3F
:10C478001BB0F0BD0CA820F0E4FE08212846134AA2
:10C488001AF02BFFE9E76423059A2846B11A4B43B3
:10C49800B3FBF6F3CDE90021CDE902630821334669
:10C4A8000B4A1AF01AFFE3E708000000E60603004B
:10C4B8004E5B030076200300E9060300F50603003F
:10C4C8002107030038070300800703005D07030006
:10C4D800AD07030070B5054692B01C2200210BA8D9
:10C4E8000AAE21F01CF91A222021304621F017F952
:10C4F8002946174818F0F8FA4FF40061154809AAB8
:10C5080020F082FE044650B11349144840F2091243
:10C518001AF0BBF840F209110F481FF0BFFE642360
:10C52800099ACDE90006C2F500614B43DB0A069380
:10C538004FF400632846CDE90413CDE902320821FF
:10C54800044B074A1AF0C9FE204612B070BD00BF5E
:10C558005DC6000050020120E4070300E6FF020068
:10C568001D08030010B504461EF078FE0821034696
:10C57800024A20461AF0B1FE002010BD66080300EA
:10C588002DE9F3411746002304460A21B86801AA99
:10C59800019301F041FD019DC6B255B12B46012121
:10C5A8002046144A1AF099FE019D284602B0BDE8BB
:10C5B800F081042E0AD93346012120460E4A1AF08A
:10C5C8008CFE20461AF096FE0125EEE77868FFF704
:10C5D80041FAB0F1000805DA012120467B68074AD4
:10C5E8001AF07BFE0021334608460FFA88F21AF04B
:10C5F80044FCDAE77C080300A3080300BA08030038
:10C608001346002273B5044601920A21586801AA0C
:10C6180001F002FD019D95B920EAE0744FF400464F
:10C62800294640F2E7304FF47A720023C4FB060132
:10C63800FBF7C0FF18F03EF8284602B070BD2B4645
:10C6480001212046024A1AF048FE019DF4E700BF86
:10C65800D9080300F0B504460D46D0F8AC6089B09F
:10C6680007A920F0DDFD034630B1082128460F4A0E
:10C678001AF033FE09B0F0BD204620F0C1FD642356
:10C68800079A0B4FB11A4B43002818BF0746B3FB54
:10C69800F6F3CDE90221CDE90463082123462846B3
:10C6A800CDE90076034A1AF018FEE3E78007030095
:10C6B800E6060300F90803002DE9F04387B00546B4
:10C6C800684615F04FFC1423009E082103FB006602
:10C6D800164A28461AF001FE154F009CDFF85480D0
:10C6E800DFF85490B44203D3002007B0BDE8F083CC
:10C6F80023680BB11A7832B923463A46142101A8A7
:10C7080019F0BEF901AB4246082128461AF0E5FDAA
:10C71800204620F072FC094B0821002808BF4B4630
:10C72800074A28461AF0D9FD1434DBE7970A0300B4
:10C73800A10A0300A60A03008E0A0300880A030060
:10C74800041203008B1E022B2DE9F0410746884690
:10C75800144637D810220021606819F033FAB8F16E
:10C76800020F064607D1202308213846244A1AF02A
:10C77800B4FD336816E00A220021A06819F022FAF5
:10C78800C5B22B46082138461D4A1AF0A6FDB8F155
:10C79800040F1AD0102D0DD0202DEAD0082D0CD161
:10C7A8003378DBB208213846164A1AF096FD002085
:10C7B800BDE8F08133889BB2F4E708213846124A75
:10C7C8001AF08BFD6FF01500F2E710220021E068E7
:10C7D80019F0F8F90821034604460C4A38461AF0BD
:10C7E8007CFD102D06D0202D07D0082DE5D1E4B210
:10C7F8003470DCE7A4B23480D9E73460D7E700BFEF
:10C80800DA0A0300050B0300EF0A0300160B030006
:10C818002DE9F04F91464FF0FF350122574B85B077
:10C82800074688461A602026FDF716F82C46DFF8DA
:10C8380050A1494652464046FDF732F8411C07D1FF
:10C848006A1C52D14F4A012138461AF046FD1DE0B4
:10C85800732820D0772833D0612817D1DFF828B182
:10C8680010220021DBF8000019F0ACF90546002879
:10C87800DFD120F065FF454B1B58162BD9D1DBF8CB
:10C888000030434A012138461AF027FD6FF01500A1
:10C8980005B0BDE8F08F0022DFF8ECB01146DBF8F8
:10C8A800000019F08FF904460028C2D120F048FF93
:10C8B800364B1B58162BBCD1DBF80030354AE1E764
:10C8C8000022DFF8C4B01146DBF8000019F07AF94D
:10C8D80006460028ADD120F033FF2C4B1B58162BF1
:10C8E800A7D1DBF800302C4ACCE7631C01D12B4AD6
:10C8F800A9E75FFA86F8C6F3C406002C3CD06B465D
:10C9080029461A46A6EB050C0CE0B8F1100F1DD00D
:10C91800B8F1200F20D0B8F1080F2AD10878187084
:10C9280031443344A64203D80CEB01001028ECD95B
:10C93800102CA14628BF4FF0100929464B4638460F
:10C9480001F092F91035A4EB0904D6E7088880B203
:10C958001870000A5870E3E708684FEA102E18703C
:10C9680083F801E04FEA104E000E83F802E0D87019
:10C97800D6E708210A4A67E7204689E7F0820020BF
:10C98800640B03006B0B0300E4A300200C00000001
:10C998002A0B03003D0B0300500B0300880B030018
:10C9A800EF0A030070B5104E04460D46337881B186
:10C9B8002BB10121BDE870400C4A1AF08EBC01234E
:10C9C8003370082120460A4A1AF087FC0123337085
:10C9D80004E083F001033370002BF2D1294620468E
:10C9E800BDE8704001F0A0BAB0B60020A20B030069
:10C9F800DD0B030070B504463C480378182B02D1C0
:10CA08000B78112B31D00B46013A8D18AB4225D14A
:10CA18008B5C0A780370A2F13003092B344C04D9DB
:10CA280022F02003413B052B04D823683149CA541E
:10CA3800013323602368022B34D1102200212D48B2
:10CA480019F0C0F82C4A136803F8010B13602B4A3D
:10CA58001368013313600023236023E013F8016B8C
:10CA6800182ED3D11E78112ED0D1244D08212B6831
:10CA78002046234A1AF031FC20460021FFF792FF96
:10CA8800204B187870B9204A2B681168042B0ADCEF
:10CA980008B111602B6013F003010BD11268136801
:10CAA8001BBA136070BD0868043B00BA41F8040B58
:10CAB8000120EBE75B4203F0030358BF5942022908
:10CAC80004D1126813885BBA9BB2EAE70329E9D15B
:10CAD800106802681104C2F3074301F47F010B4395
:10CAE80002F47F4213430360DCE700BFB1B60020C5
:10CAF80048A40020B3B6002054A400204CA4002071
:10CB0800070C0300B2B6002050A400202DE9F84F0E
:10CB18000023064615460C462949DFF8A8800B6015
:10CB28002949DFF8A890DFF8A8B088F800300B6032
:10CB3800012C2F4655F804AF1ED90222494650460B
:10CB480020F02CFD80B99AF80220003A18BF012283
:10CB58009244504602221F4920F020FD30B901239B
:10CB680088F80030013CE3E70022F1E749465046E7
:10CB7800FBF788FEA8B9043700227868114618F038
:10CB8800ABFF0022144B11461860786818F0A4FF18
:10CB9800124B134918603046FFF704FF0020BDE828
:10CBA800F88F9AF800202D2AE6D19AF80120002A59
:10CBB800E2D053465A46082130461AF08EFBD1E798
:10CBC80048A40020B2B600204CA40020210C030089
:10CBD800270C0300240C030054A4002050A40020B8
:10CBE800FDC9000007B50A4820F007FA60B1042320
:10CBF800084A0093126801230549074801F0F4F830
:10CC0800002003B05DF804FB6FF01200F9E700BFE5
:10CC180090D8020050E40200D0DD020010B544684C
:10CC2800A3604023C4E9001242680821D36402F1DA
:10CC3800580313630023C2E90E33C2E91133C2E972
:10CC48000633C2E90933D162146802F15001536313
:10CC58001364116153611362C2F8D030A36823B121
:10CC68001B6C13B1204604499847A3681B6A0BB193
:10CC780020469847002010BD85CC00002DE9F743D9
:10CC880004460D468368DB6B03B19847A368DB6AEB
:10CC9800FBB94FF0000905F130084046EA6C01A9DC
:10CCA80019F072FE074600284BD0A36801991B694A
:10CCB8005BBB6FF05701404619F083FE002853D044
:10CCC8003A496E223A4819F0E0FC6E2137481FF0C5
:10CCD800E5FA204698470028DBD1A368DB69002BDA
:10CCE80045D105F110073846EA6A01A919F07EFE18
:10CCF8000646002842D120461AF0F5F9C5F8D0605A
:10CD08000120D5E90131984735E002462046984789
:10CD18000646014640463EB919F053FE0028CFD1D9
:10CD2800B9F1000FD9D007E019F04BFE0028C7D1A0
:10CD3800B7424FF00109B0D00020D5E9013198473A
:10CD4800CBE71C48036813F0060F03D002211A4AE8
:10CD58001AF00AF9A3681B69002BE1D001222046CA
:10CD68000DF103019847DBE76FF05706E0E720462F
:10CD780098470028B5D103B0BDE8F083A3680199AE
:10CD8800DB687BB10246204698470146384619F0D1
:10CD980049FE0028B4D00549BA22054819F075FCA7
:10CDA800BA2193E76FF05701F0E700BF830D030046
:10CDB800E6FF020080880020B90D030010B5044684
:10CDC8008168183101F018FCA1682046BDE81040C0
:10CDD800014A183101F0B6BBFB0D030038B5044613
:10CDE80050B91E4940F2F3421D4819F04EFC40F27A
:10CDF800F3411A481FF052FA83680BB1426842B9EE
:10CE0800164940F2F442164819F03FFC40F2F4414A
:10CE1800EFE7D3F87832DB071DD4C0691AF048FF72
:10CE2800606803685B689847054620B9E0681BF0AE
:10CE3800ECF8A3681D75A3685B6C13B129462046FE
:10CE48009847002220F07CFCA368C3F82023054BF8
:10CE5800185802F099FE6FF00F05ECE7090E030071
:10CE6800E6FF02000800000001491AF0D4B900BF2B
:10CE7800E2070300F7B5044680680D46D0F878321B
:10CE88005A0705D500211AF0DEF9E0681BF08FF883
:10CE9800E368DB6873B9002D3BD0A66806F1560736
:10CEA80038461AF0B2F9002835D0394606F5AB7085
:10CEB800FBF7F2FCA2682946E0680DF1060356323A
:10CEC8001BF078F858B9A06800F5AB715630FBF73D
:10CED800E3FCA06856301AF098F9ADF80600204631
:10CEE8001AF010FDA368D3F874329B0603D50B49DA
:10CEF80060691AF090F9204601F0F6F8A268BDF8CA
:10CF080006302046A2F85230A268A2F850301AF033
:10CF18005EFC03B0F0BD86F85601CBE738DF0200AF
:10CF28002DE9F04FA7B004465422002111A820F0A3
:10CF3800F6FB0023CDE90533A36820465633029358
:10CF48001AF0E7FC20461AF02BFC10B96069FFF7CD
:10CF58008BFF00264FF0FF37B246B3463546B14641
:10CF6800A06814220021183020F0D9FB20461AF0BE
:10CF7800BEFBA168E068B1F8502056311BF051F8AB
:10CF880020461BF0D0F80DF144080396DDE9053280
:10CF9800012A6DD0132B6ED85FBBBBF1000F0AD0EE
:10CFA80020461BF0E1F81423A26811A956320DEBB4
:10CFB80003001AF01CFAB9F1000F0CD099F81130DF
:10CFC800FE2B08D1059B26AA02EB830252F8542CAB
:10CFD8000AB101330593A068059D436A002B40F010
:10CFE800B680CEB1C3699E422DD00D9600F11805CA
:10CFF80024E002234146029A06A81AF0F8F9D8F864
:10D00800042006990346029231B101290AD148B198
:10D018006D4A204601F04CF96FF00705284627B005
:10D02800BDE8F08F059B002B34D0D8F8000001F044
:10D0380003FB98B166B1A5680D9618350CAE0FCEF6
:10D048000FC533682B602046FFF7B8FE0125E5E7DA
:10D058005E4A0121204601F02BF9DDE7059BCBB1A3
:10D0680029462046D8F8002001F0A4FC022809D15E
:10D07800059B132B91D9069B022B8ED10121544B72
:10D08800544AC6E7032805D0059B4FF0010B01332E
:10D0980005937BE7039B33B94846D8F8001007AAE5
:10D0A8001AF09CFA054608F10408013F9DB3EB68A5
:10D0B800BBF1000F08D0F3B120461AF02AFC204635
:10D0C8001AF085FB444AC4E7ABB1AE46A368DDF865
:10D0D80014A003F1180CBEE80F00ACE80F00DEF84E
:10D0E8000030CCF80030AB682BB96B7CFE2B04BF4A
:10D0F8002F7C07F1FF37D5F804C0BCF1000F08D02A
:10D10800AE460CAEBEE80F000FC6DEF80030336046
:10D118006646A94603E0059B53B101230393069B8A
:10D1280017B9022B7FF432AF059B013305932DE726
:10D13800A368DB6A13B1DB68002BEED1274B012112
:10D1480000932046119B264A01F0B2F8E5E790F8D3
:10D158002830A5EB0A05BBB14FF6FF7290F82910ED
:10D16800FF2918BF0A469D4202D313449D420BD99A
:10D178008369012120461B4A01F09AF82046FFF7EF
:10D188001DFE6FF0150549E701211AF051F8A06856
:10D1980000F543701AF070F8A36811AA294602EB4B
:10D1A8008A0220465B6A98470546A0684FF0FF321E
:10D1B8004FF0FF3300F543701AF00FF80021A06814
:10D1C8001AF036F82AE700BF310E0300450E0300B7
:10D1D800A60E030012FC0200630E0300920E030069
:10D1E800B6110300CA0E0300022210B58368044674
:10D1F8001A7583689B6CBBB919F0CEFF8368D3F8A6
:10D208007832DB040BD50321084B094A01F050F8AA
:10D21800A0686FF4805100F51E7019F0D3FF204606
:10D22800BDE8104001F070B910BD00BFE50E030065
:10D23800A80A03002DE9F04F0446B1B050B9B3492C
:10D2480040F2CA52B24819F020FA40F2CA51AF4827
:10D258001FF024F8806840B9AC4940F2CB52AC4882
:10D2680019F013FA40F2CB51F1E7012100F51E70D5
:10D2780019F09DFFA3681B7D022B20D10023099381
:10D28800A36860689E6C03681D6909AB0EB3102221
:10D298001BA9A847099B93B10121A06819F0C8FFF1
:10D2A8002046099A1BA9B0470021A06819F0C0FFC1
:10D2B800A3689B6C002BE3D12046FFF795FF6FF026
:10D2C8000101A06800F51E7031B0BDE8F04F19F0FB
:10D2D80079BF01220DF12301A847099B002BEED04D
:10D2E8009DF923209DF82310002AA368C8DB5A7DE6
:10D2F800032A00F2BA82DFE812F00400A702CF0284
:10D30800B8020D297CD00A2958D0B3F87822092907
:10D318006FF3CA02A3F87822A06800F086803DD88F
:10D328000029ADD0082900F01E820346D3F87422E4
:10D338009207A5D501391629A2D801A252F821F0E1
:10D3480041D90000A9D70000B1D70000A1D700003B
:10D3580035D90000CFD7000089D2000089D200005B
:10D3680089D2000089D20000D7D70000DFD700009B
:10D3780089D2000009D8000089D2000013D8000023
:10D3880089D2000089D2000089D2000089D2000029
:10D3980017D8000089D2000041D800001B2941D0CD
:10D3A8007F2900F0EC81A1F120025E2A0346BDD856
:10D3B800012119F048FF9DF82310EDE0D3F87822F9
:10D3C800C2F3C7022AB1D3F87822C2F3C7020A2AE5
:10D3D800ACD1B3F8782261F3CA02A3F87822A56821
:10D3E800B5F85010C1B9284619F02DFFE0681AF0B9
:10D3F800DEFD6069FFF738FD2046FFF7F5FE3FE7E1
:10D40800D3F87822C2F3C702002AE2D0D3F87822F0
:10D41800C2F3C7020D2ADBE72046FFF781FDC5F8F6
:10D428002403E9E7012343752AE7D0F874329B0700
:10D438007FF526AF012119F006FFA068B0F850303B
:10D44800FF2B3FF41DAF0025B0F8522000F1560124
:10D4580000F5AB7020F03CF9A3681BA9B3F8522083
:10D468000BA8134483F85651A268142302F5AB7233
:10D4780019F0BDFF0B9914293FF602AF30AB03EB4F
:10D48800810343F8545CA368B3F85220134493F81B
:10D498005530202B02D0093B042B3BD800293CD126
:10D4A80000250A950A9B30AA02EB830353F854AC73
:10D4B8000026504619F0A9FEB3468146B0463746C5
:10D4C8003946284616AA00F05DFD0346002830D1EB
:10D4D800012EA76875D10A9B30AA02EB830353F883
:10D4E800540C19F092FE4146064607F118022846E8
:10D4F80000F048FD002833D1044940F26F12044877
:10D5080019F0C3F840F26F11A1E600BF090E03003D
:10D51800E6FF02000129C3D9013900200CAB0093B2
:10D5280001900AAB1BAA1AF084F805460028B9D165
:10D53800A6E61B684A4651461846039320F02EF883
:10D5480060B9039B1846FBF7AFF9584538BF5846F2
:10D55800002E08BFB8461FFA80FB01360137AFE737
:10D568000568284619F051FE864205D0821B92B202
:10D578002046A9191AF075FAA068B0F85230034489
:10D5880093F85630202B0BD0093B042B08D9D0F840
:10D598007432DF0709D42021204600F07DFF6FE6B2
:10D5A800012120461AF047F96AE6002119F055FED4
:10D5B8002021204600F070FF0121A06819F04DFEDF
:10D5C8005EE603907FF65CAE0A9A30AB03EB82020C
:10D5D80052F8543C1846049319F017FE039B069022
:10D5E800A7F840300596CDF80C80A2682846039924
:10D5F800183200F0C7FC40B99F494FF4DC729F48CD
:10D6080019F043F84FF4DC7121E6039BD0F800A031
:10D6180001330393049BD4F80890002B35D0BAF15A
:10D62800000F35D019465046069A1FF0B7FF00285C
:10D63800DBD1934819F0E9FDB9F83A1000EB0B0774
:10D64800BFB2091A91FBF7F1504689B2079119F058
:10D65800DCFDB9F8402007993F1A501CA9F8400092
:10D66800B2FBF1F001FB102292B2BFB2002A37D10F
:10D6780006212046824B834ACDF800A000F018FE10
:10D688003946204600F01AFD05E0BAF1000FD0D166
:10D698000023A9F84030059B013B0593A5D160699B
:10D6A800FFF7E2FB204600F02FFF0A9B30AA02EBAF
:10D6B800830353F8540C19F0A8FD4146814611AA7A
:10D6C800284600F05FFC08F1010A074678B96A4964
:10D6D8004FF4EA72694818F0D8FF4FF4EA71B6E5DA
:10D6E800534606212046684A00F0E2FDC8E7A068D4
:10D6F8003968FF2200F5AB701FF062FF3B684FF6F8
:10D70800FF77B84603935146284616AA0AF1010B3B
:10D7180000F038FCD8B10022A168036801F2551165
:10D7280011F801EF985C704503D110B10132424500
:10D73800F6D1B9F1000F01D04A4506DBBA42A8BFBD
:10D748003A46013E012E97B201D0DA46DBE7002FB8
:10D758003FF496AD0399A7EB0902204692B24944DB
:10D768001AF07FF98CE5D0F874329E077FF588AD02
:10D77800012119F068FD20461AF094F980E5D0F8E7
:10D7880074329D077FF57CAD012119F05CFDA3681B
:10D79800D3F874321907EED420461AF064F96FE50D
:10D7A80020461AF0BFF86BE520461AF0B2F820467A
:10D7B80019F0F6FF10B96069FFF756FB0121A06860
:10D7C80019F041FD18E620461AF0B5F858E520464C
:10D7D8001AF0BCF854E5D3F874329B0603D52B49EC
:10D7E800606919F018FDA368D3F874329F0603D551
:10D7F8002749606919F00FFD204600F085FE3FE5D6
:10D8080000212046FFF736FB3AE50121F9E72046DB
:10D818001AF078F8204619F0BFFC0121A06819F029
:10D8280012FDA368D3F874329E067FF529AD194915
:10D83800606919F0F0FC23E5204600F08BFD01211A
:10D84800A06819F000FD1BE55B2902D102225A7578
:10D8580016E5D3F874329D0706D5622907D14FF033
:10D86800FF3120461AF010F8A3680022EFE7662976
:10D87800FAD10121F5E700BF090E0300E6FF020017
:10D888004D5B0300290F0300A80A03003DDF0200D7
:10D8980042DF020038DF020000225A75A268D2F87F
:10D8A800743298077FF5ECACA1F131031B2B3FF6DE
:10D8B800E7AC01A151F823F03DD9000049D9000097
:10D8C8005DD9000031D9000089D2000089D200005A
:10D8D80089D2000089D2000089D2000089D20000D4
:10D8E80089D2000089D2000089D2000089D20000C4
:10D8F80089D2000089D2000013D8000009D800009E
:10D90800CFD70000A9D7000089D2000035D9000080
:10D9180089D2000041D9000089D2000089D20000D4
:10D9280089D200004DD9000003235375204619F011
:10D93800F0FFA5E403235375204619F0E3FF9FE4A5
:10D9480003235375A068D0F8741201F0010181F027
:10D95800010133E603235375A368D3F874329B0798
:10D968007FF58EAC18E700BF10B5044650B92649BC
:10D9780040F29752254818F088FE40F29751224805
:10D988001EF08CFC83681BB142680AB1026842B978
:10D998001D494FF4B3621D4818F077FE4FF4B36188
:10D9A800EDE71A7D012A2BD1D3F87822510408D546
:10D9B800D3F87422520704D40146DA6CC0691AF00D
:10D9C80060F9A0684FF0FF324FF0FF3300F5437065
:10D9D80019F003FC2046082100F02CFC206819F0FF
:10D9E80014FC18B10A49606919F015FC2046FFF7C4
:10D9F800FBFBA06800F5437019F03EFC002010BD49
:10DA08006FF08500FBE700BF090E0300E6FF020088
:10DA1800E10703002DE9F04104468068154600F54A
:10DA28001E70002937D04FF4804119F0C0FBA3685D
:10DA38000021DD64606803689B68984700284BD123
:10DA48002046FFF791FF002846D1244E244FDFF8E7
:10DA58009480A06800F52F704FF0FF324FF0FF332D
:10DA6800032117F047FD0546A0684FF0FF324FF03D
:10DA7800FF3300F543709DB119F0AFFB20462B46EC
:10DA88000121194A00F014FCA068BDE8F04100F536
:10DA9800437019F0F1BB6FF4804119F093FBC6E7AE
:10DAA80019F09BFB32460221204619F098FB3A46B2
:10DAB8002946204619F093FB20464246012119F0D9
:10DAC8008EFB606803685B6903B19847A06800F53E
